:1000000012C02CC02BC02AC029C028C027C026C0BF
:1000100025C024C023C022C021C020C01FC01EC0D4
:100020001DC01CC01BC011241FBECFE5D4E0DEBF25
:10003000CDBF11E0A0E6B0E0EEE6F0E102C0059031
:100040000D92AC34B107D9F721E0ACE4B1E001C0C6
:100050001D92AA35B207E1F7D4D007C8D1CF92B329
:100060009F70282F207F922B92BB9298939A32E018
:100070003A95F1F700C09398EFE8F1E03197F1F786
:1000800000C0000022B32F70F0E18F9FC001112447
:10009000822B82BB939A32E03A95F1F700C0939895
:1000A0008FE99FE00197F1F700C00000089592B337
:1000B0009F70282F207F922B92BB929A939A32E0C6
:1000C0003A95F1F700C09398EFE8F1E03197F1F736
:1000D00000C0000022B32F70F0E18F9FC0011124F7
:1000E000822B82BB939A32E03A95F1F700C0939845
:1000F0008FE99FE00197F1F700C0000008958FEFAE
:1001000081BB8FE39CE90197F1F700C0000083E316
:10011000A6DF82E3A4DF88E2A2DF8CE0A0DF86E036
:100120009EDF81E09CDF8FE99FE00197F1F700C03F
:10013000000080E894DF0895CF93DF93EC0188817D
:10014000882329F02196B3DF89918111FCCFDF91BB
:10015000CF910895CF93DF93EA01811107C06031F9
:1001600068F4862F8F7080687ADF08C0813031F4A0
:10017000603120F4862F8F70806C71DFCE01DCDF60
:10018000DF91CF91089581E06ADF8FE99FE00197C9
:10019000F1F700C0000080E862DF0895EF92FF925F
:1001A0000F931F93CF93DF93CDB7DEB72A970FB688
:1001B000F894DEBF0FBECDBFF82EE62E1F924F93F0
:1001C00083E690E09F938F938E010F5F1F4F1F93E5
:1001D0000F9373D4A8016E2D8F2DBCDF0F900F905D
:1001E0000F900F900F900F902A960FB6F894DEBFE5
:1001F0000FBECDBFDF91CF911F910F91FF90EF9078
:1002000008950F931F93CF93DF9384B3807C84BBB7
:1002100085B38F6385BB87B38F7387BBB99A88B368
:10022000826C88BB6CDF46E650E060E080E092DFE5
:1002300047E750E060E081E08DDFC9E102E013E0D4
:10024000D4E05FC0B79947C08091560190915701A3
:100250000196909357018093560120916000309150
:100260006100281739070CF04CC0809159018111A9
:100270002DC0C19888DF48E850E060E080E06ADF88
:1002800049E950E060E081E065DF2FEF83ED90E326
:10029000215080409040E1F700C0000074DF4AEA3E
:1002A00050E060E080E056DF4DEA50E068E080E03A
:1002B00051DF40EB50E060E081E04CDF43EB50E089
:1002C00068E081E047DF109262001FC01092570182
:1002D0001092560116C080915401909155010196DB
:1002E00090935501809354012091600030916100FA
:1002F0002817390734F410925901109255011092C1
:1003000054018091620081119DCF98991CC0809109
:100310005601909157010196909357018093560191
:100320002091600030916100281739070CF099C0C6
:1003300080915901811102C0D09359011092570147
:10034000109256018EC099991CC0809156019091CF
:1003500057010196909357018093560120916000B8
:1003600030916100281739070CF07BC0809159014A
:10037000811102C010935901109257011092560139
:1003800070C09A991CC080915601909157010196B6
:100390009093570180935601209160003091610045
:1003A000281739070CF05DC080915901811102C0F6
:1003B00000935901109257011092560152C09B9917
:1003C0001DC080915601909157010196909357015D
:1003D0008093560120916000309161002817390701
:1003E0000CF03FC080915901811103C081E08093DE
:1003F0005901109257011092560133C0B6991AC094
:1004000080915601909157010196909357018093E6
:1004100056012091600030916100281739070CF5D2
:1004200080915901882309F404C310925701109256
:1004300056011CC0809154019091550101969093F2
:10044000550180935401209160003091610028177C
:1004500039073CF410925901109255011092540141
:1004600050CF80915901882309F44BCF893109F489
:1004700048CF853009F445CF86DE8091590182301E
:1004800009F4BEC018F4813041F03BCF833009F449
:100490006AC1843009F41AC234CF4AED50E060E0FA
:1004A00080E058DE40EE50E060E081E053DE1092E4
:1004B000590120916000309161009D9935C0809173
:1004C00056019091570101969093570180935601E0
:1004D0002817390794F780915901811120C053DE04
:1004E00040EF50E060E080E035DE4EEF50E060E04D
:1004F00081E030DEC0935901809152019091530107
:10050000019690935301809352012FEF83ED90E376
:10051000215080409040E1F700C0000046C010929A
:10052000570110925601C9CF9C992BC0809156015A
:100530009091570101969093570180935601281787
:1005400039070CF0BACF80915901811115C01BDE1B
:1005500045E051E060E080E0FDDDC093590181E0BD
:10056000809358012FEF83ED90E32150804090401D
:10057000E1F700C0000019C0109257011092560117
:100580009CCF809154019091550101969093550113
:1005900080935401281739070CF08FCF109259011E
:1005A000109255011092540188CFEDDD80915801D1
:1005B0008823B9F04AEA50E060E080E0CBDD4DEA04
:1005C00050E068E080E0C6DD40EB50E060E081E0B4
:1005D000C1DD43EB50E068E081E0BCDD10925801E2
:1005E00090CE46E650E060E080E0B4DD47E750E0C2
:1005F00060E081E0AFDDC19A81E08093620081CE4E
:1006000042E151E060E080E0A5DD40EE50E060E0D6
:1006100081E0A0DD109259012091600030916100CD
:100620009D9935C080915601909157010196909304
:100630005701809356012817390794F78091590183
:10064000811120C0A0DD40EF50E060E080E082DD5D
:100650004FE151E060E081E07DDDC0935901809180
:100660005001909151010196909351018093500156
:100670002FEF83ED90E3215080409040E1F700C0E0
:10068000000046C01092570110925601C9CF9C99A4
:100690002BC080915601909157010196909357017C
:1006A00080935601281739070CF0BACF8091590171
:1006B000811115C068DD45E051E060E080E04ADD71
:1006C000C093590181E0809358012FEF83ED90E3AF
:1006D000215080409040E1F700C0000019C0109206
:1006E0005701109256019CCF809154019091550171
:1006F00001969093550180935401281739070CF007
:100700008FCF10925901109255011092540188CF49
:100710003ADD809158018823B9F04AEA50E060E060
:1007200080E018DD4DEA50E068E080E013DD40EB4A
:1007300050E060E081E00EDD43EB50E068E081E0F6
:1007400009DD10925801DDCD46E650E060E080E022
:1007500001DD47E750E060E081E0FCDCC19A81E028
:1007600080936200CECD46E251E060E080E0F2DCB2
:1007700040EE50E060E081E0EDDC10925901209104
:100780006000309161009D9935C080915601909133
:100790005701019690935701809356012817390706
:1007A00094F780915901811120C0EDDC40EF50E0B9
:1007B00060E080E0CFDC42E351E060E081E0CADC51
:1007C000C093590180914E0190914F0101969093F1
:1007D0004F0180934E012FEF83ED90E32150804035
:1007E0009040E1F700C0000046C0109257011092FF
:1007F0005601C9CF9C992BC0809156019091570109
:1008000001969093570180935601281739070CF0F1
:10081000BACF80915901811115C0B5DC45E051E096
:1008200060E080E097DCC093590181E0809358013B
:100830002FEF83ED90E3215080409040E1F700C01E
:10084000000019C010925701109256019CCF809160
:100850005401909155010196909355018093540154
:10086000281739070CF08FCF1092590110925501BB
:100870001092540188CF87DC809158018823B9F009
:100880004AEA50E060E080E065DC4DEA50E068E074
:1008900080E060DC40EB50E060E081E05BDC43EB5B
:1008A00050E068E081E056DC109258012ACD46E61F
:1008B00050E060E080E04EDC47E750E060E081E03F
:1008C00049DCC19A81E0809362001BCD49E351E08D
:1008D00060E080E03FDC40EE50E060E081E03ADC48
:1008E0001092590120916000309161009D9935C0AE
:1008F00080915601909157010196909357018093F2
:1009000056012817390794F780915901811120C0A9
:100910003ADC40EF50E060E080E01CDC45E451E070
:1009200060E081E017DCC093590180914C01909107
:100930004D01019690934D0180934C012FEF83ED73
:1009400090E3215080409040E1F700C0000046C095
:100950001092570110925601C9CF9C992BC08091DB
:10096000560190915701019690935701809356013B
:10097000281739070CF0BACF80915901811115C0A1
:1009800002DC45E051E060E080E0E4DBC093590127
:1009900081E0809358012FEF83ED90E32150804058
:1009A0009040E1F700C0000019C01092570110926A
:1009B00056019CCF809154019091550101969093DE
:1009C000550180935401281739070CF08FCF1092EE
:1009D0005901109255011092540188CFD4DB8091B7
:1009E00058018823B9F04AEA50E060E080E0B2DBC9
:1009F0004DEA50E068E080E0ADDB40EB50E060E0C5
:100A000081E0A8DB43EB50E068E081E0A3DB1092DB
:100A1000580177CC46E650E060E080E09BDB47E79A
:100A200050E060E081E096DBC19A81E08093620053
:100A300068CCA9DB46EB50E060E080E08BDB47EC64
:100A400050E060E081E086DB2FEF83ED90E3215002
:100A500080409040E1F700C0000095DB4AEA50E09A
:100A600060E080E077DB4DEA50E068E080E072DB38
:100A700040EB50E060E081E06DDB43EB50E068E08C
:100A800081E068DB4091520163E080E087DB4091C8
:100A900050016BE080E082DB40914E0163E081E039
:100AA0007DDB40914C016BE081E078DB80E090E001
:100AB000DF91CF911F910F910895AEE0B0E0E2E693
:100AC000F5E0AAC20D891E8986E08C831A8309830A
:100AD0008FEF9FE79E838D83AE01475E5F4F6F89E7
:100AE000788DCE01019608D0EF81F885E00FF11FD7
:100AF00010822E96E4E0ACC2ABE0B0E0E1E8F5E0B5
:100B00007DC26C017B018A01FC0117821682838100
:100B100081FFBFC1CE0101963C01F6019381F7012F
:100B200093FD859193FF81917F01882309F4ADC1E5
:100B3000853239F493FD859193FF81917F01853250
:100B400021F4B60190E0C0D1E8CF912C212C312CBA
:100B5000FFE1F315D8F08B3279F038F4803279F078
:100B60008332A1F4232D20611DC08D3261F08033CA
:100B700069F4232D216016C0832D8260382EE32D69
:100B8000E4603E2E2AC0F32DF8601DC037FC2DC056
:100B900020ED280F2A3040F08E32B9F436FC75C1B2
:100BA000232D2064322E19C036FE06C08AE0989E9E
:100BB000200D1124922E11C0EAE02E9E200D11244A
:100BC000222EF32DF0623F2E08C08C3621F4832DA7
:100BD0008068382E02C0883641F4F70193FD859174
:100BE00093FF81917F018111B3CF982F9F7D955401
:100BF000933028F40C5F1F4F9FE399830DC0833619
:100C000031F0833771F0833509F055C020C0F80109
:100C1000808189830E5F1F4F88248394912C530118
:100C200012C02801F2E04F0E511CF801A080B180E3
:100C300036FE03C0692D70E002C06FEF7FEFC50183
:100C400038D14C018201F32DFF773F2E15C02801CA
:100C500022E0420E511CF801A080B18036FE03C094
:100C6000692D70E002C06FEF7FEFC50117D14C0115
:100C7000F32DF0683F2E820133FC19C0822D90E0E5
:100C800088169906A0F4B60180E290E01DD12A945E
:100C9000F5CFF50137FC859137FE81915F01B601F3
:100CA00090E012D121102A9421E0821A9108811437
:100CB000910479F7E1C0843611F0893639F5F801ED
:100CC00037FE07C060817181828193810C5F1F4F65
:100CD00008C060817181072E000C880B990B0E5F94
:100CE0001F4FF32DFF763F2E97FF09C090958095FB
:100CF000709561957F4F8F4F9F4FF0683F2E2AE090
:100D000030E0A3011DD1882E861844C0853731F408
:100D1000232D2F7EB22E2AE030E025C0932D997F1F
:100D2000B92E8F36C1F018F4883579F0AEC080370F
:100D300019F0883721F0A9C0E92FE061BE2EB4FE7A
:100D40000DC0FB2DF460BF2E09C034FE0AC0292F50
:100D50002660B22E06C028E030E005C020E130E079
:100D600002C020E132E0F801B7FE07C06081718166
:100D7000828193810C5F1F4F06C06081718180E08A
:100D800090E00E5F1F4FA301DBD0882E8618FB2D4D
:100D9000FF773F2E36FE0DC0232D2E7FA22E891405
:100DA00058F434FE0BC032FC09C0832D8E7EA82E71
:100DB00005C0B82CA32C03C0B82C01C0B92CA4FECC
:100DC0000FC0FE01E80DF11D8081803321F49A2DC2
:100DD000997EA92E09C0A2FE06C0B394B39404C0A4
:100DE0008A2D867809F0B394A3FC10C0A0FE06C03B
:100DF000B21480F4280C922C9B180DC0B21458F435
:100E0000B60180E290E060D0B394F8CFB21418F449
:100E10002B1802C0982C212CA4FE0FC0B60180E331
:100E200090E052D0A2FE16C0A1FC03C088E790E07B
:100E300002C088E590E0B6010CC08A2D867851F09A
:100E4000A1FE02C08BE201C080E2A7FC8DE2B601E8
:100E500090E03AD0891430F4B60180E390E034D0C9
:100E60009A94F8CF8A94F301E80DF11D8081B601C0
:100E700090E02AD08110F6CF222009F44ECEB601A0
:100E800080E290E021D02A94F7CFF6018681978105
:100E900002C08FEF9FEF2B96E2E1CCC0FC010590E2
:100EA000615070400110D8F7809590958E0F9F1F6C
:100EB0000895FC016150704001900110D8F78095B1
:100EC00090958E0F9F1F08950F931F93CF93DF93DD
:100ED000FB01238121FD03C08FEF9FEF2CC022FF78
:100EE00016C046815781248135814217530744F447
:100EF000A081B1819D012F5F3F4F318320838C936F
:100F0000268137812F5F3F4F3783268314C08B01A3
:100F1000EC01FB010084F185E02D0995892BE1F6B8
:100F2000D80116968D919C911797019617969C93D0
:100F30008E931697CE01DF91CF911F910F91089557
:100F4000FA01AA27283051F1203181F1E8946F93FA
:100F50006E7F6E5F7F4F8F4F9F4FAF4FB1E03ED0A0
:100F6000B4E03CD0670F781F891F9A1FA11D680F3E
:100F7000791F8A1F911DA11D6A0F711D811D911D71
:100F8000A11D20D009F468943F912AE0269F1124E6
:100F90003019305D3193DEF6CF010895462F47704A
:100FA000405D4193B3E00FD0C9F7F6CF462F4F70A5
:100FB000405D4A3318F0495D31FD4052419302D003
:100FC000A9F7EACFB4E0A6959795879577956795A9
:100FD000BA95C9F700976105710508959B01AC01A9
:100FE0000A2E06945795479537952795BA95C9F7D0
:100FF000620F731F841F951FA01D08952F923F92AB
:101000004F925F926F927F928F929F92AF92BF9218
:10101000CF92DF92EF92FF920F931F93CF93DF93C4
:10102000CDB7DEB7CA1BDB0B0FB6F894DEBF0FBE21
:10103000CDBF09942A88398848885F846E847D846E
:101040008C849B84AA84B984C884DF80EE80FD8070
:101050000C811B81AA81B981CE0FD11D0FB6F894E6
:0E106000DEBF0FBECDBFED010895F894FFCFA7
:10106E006400012564002A2A2A2A2A45564D206941
:10107E00732A2A2A2A2A002A2A2A2A4C4F434B4507
:10108E0044212A2A2A2A2A002D2D2D2D2D45564D52
:10109E002069732D2D2D2D2D002D2D2D554E4C4FA0
:1010AE00434B4544212D2D2D2D00413A00423A004F
:1010BE00433A00443A002023232320566F74696E6E
:1010CE0067202323232000202323232046696E69D3
:1010DE00736865642023232320004D722E20410067
:1010EE00436F6E6669726D3F205965732F4E6F00A8
:1010FE00596F7520766F74656420666F72004D723D
:10110E002E4121210054727920616761696E2E2E65
:10111E002E00566F74656420666F72204221004D5A
:10112E00722E42212100566F74656420666F722004
:10113E0043004D722E43212100566F746564206664
:0C114E006F722044004D722E44212100DD
:00000001FF
